00COTAHIST.2025BOVESPA 20250415                                                                                                                                                                                                                      
012025041502VTRU3       010VITRUEDUCA  ON      NM   R$  000000000072700000000007320000000000694000000000071100000000007040000000000704000000000070501088000000000000260600000000000185411800000000000000009999123100000010000000000000BRVTRUACNOR3100
012025041502VULC3       010VULCABRAS   ON      NM   R$  000000000162600000000016600000000001615000000000164800000000016540000000001648000000000165402746000000000000770100000000001269367500000000000000009999123100000010000000000000BRVULCACNOR2168
012025041502VVEO3       010VIVEO       ON      NM   R$  000000000012500000000001260000000000122000000000012400000000001240000000000123000000000012401022000000000001385100000000000172237800000000000000009999123100000010000000000000BRVVEOACNOR0104
012025041502VAMO3       010VAMOS       ON      NM   R$  000000000048100000000004960000000000474000000000048700000000004890000000000489000000000049113724000000000006920700000000003373118200000000000000009999123100000010000000000000BRVAMOACNOR7108
012025041502VBBR3       010VIBRA       ON      NM   R$  000000000182200000000018570000000001818000000000183500000000018270000000001826000000000183317283000000000007033400000000012910375000000000000000009999123100000010000000000000BRVBBRACNOR1111
012025041502WEGE3       010WEG         ON      NM   R$  000000000458500000000046330000000004550000000000459000000000045820000000004581000000000459513591000000000004444900000000020405559700000000000000009999123100000010000000000000BRWEGEACNOR0228
012025041502AALR3       010ALLIAR      ON      NM   R$  000000000051800000000005250000000000499000000000051100000000005120000000000512000000000051500592000000000000226000000000000115592000000000000000009999123100000010000000000000BRAALRACNOR6103
012025041502ABCB4       010ABC BRASIL  PN      N2   R$  000000000194500000000019870000000001945000000000197100000000019660000000001965000000000197103244000000000000616200000000001214845700000000000000009999123100000010000000000000BRABCBACNPR4147
012025041502ABEV3       010AMBEV S/A   ON           R$  000000000136800000000013860000000001362000000000137300000000013660000000001365000000000136819229000000000022758200000000031260173400000000000000009999123100000010000000000000BRABEVACNOR1130
012025041502BALM4       010BAUMER      PN           R$  000000000134500000000013450000000001345000000000134500000000013450000000001200000000000135000002000000000000000300000000000000403500000000000000009999123100000010000000000000BRBALMACNPR2057
012025041502BAZA3       010AMAZONIA    ON           R$  000000000914900000000091490000000009114000000000913100000000091140000000008859000000000912400002000000000000000200000000000001826300000000000000009999123100000010000000000000BRBAZAACNOR0179
012025041502BBAS3       010BRASIL      ON      NM   R$  000000000280300000000028120000000002770000000000278800000000027770000000002776000000000277731310000000000025468600000000071010654900000000000000009999123100000010000000000000BRBBASACNOR3329
012025041502BRBI11      010BR PARTNERS UNT     N2   R$  000000000143100000000014370000000001415000000000142300000000014180000000001418000000000142501243000000000000178900000000000254594400000000000000009999123100000010000000000000BRBRBICDAM10113
012025041502BRFS3       010BRF SA      ON      NM   R$  000000000204000000000020780000000002033000000000205400000000020670000000002066000000000206713263000000000004453300000000009150034300000000000000009999123100000010000000000000BRBRFSACNOR8124
012025041502HBSA3       010HIDROVIAS   ON      NM   R$  000000000022700000000002440000000000226000000000023500000000002300000000000229000000000023004725000000000005710000000000001345937700000000000000009999123100000010000000000000BRHBSAACNOR0102
012025041502HBTS5       010HABITASUL   PNA          R$  000000000294300000000029430000000002943000000000294300000000029430000000002818000000000299900001000000000000000100000000000000294300000000000000009999123100000010000000000000BRHBTSACNPA3128
012025041502CCRO3       010CCR SA      ON      NM   R$  000000000119200000000012490000000001182000000000123000000000012460000000001246000000000125022113000000000019151900000000023562036900000000000000009999123100000010000000000000BRCCROACNOR2146
012025041502CSNA3       010SID NACIONALON           R$  000000000089800000000009040000000000861000000000087500000000008650000000000864000000000086611469000000000009083100000000007949505800000000000000009999123100000010000000000000BRCSNAACNOR6262
012025041502ALOS3       010ALLOS       ON      NM   R$  000000000198600000000020050000000001964000000000198300000000020000000000001995000000000200010058000000000004385500000000008697125400000000000000009999123100000010000000000000BRALOSACNOR5108
012025041502ALPA3       010ALPARGATAS  ON      N1   R$  000000000075000000000007690000000000750000000000075100000000007500000000000750000000000076900019000000000000008600000000000006465600000000000000009999123100000010000000000000BRALPAACNOR0232
012025041502ALPA4       010ALPARGATAS  PN      N1   R$  000000000073300000000007400000000000727000000000073400000000007360000000000733000000000073704103000000000000942600000000000692467100000000000000009999123100000010000000000000BRALPAACNPR7233
012025041502ALPK3       010ESTAPAR     ON      NM   R$  000000000028300000000002840000000000275000000000027900000000002810000000000280000000000028100183000000000000067400000000000018841400000000000000009999123100000010000000000000BRALPKACNOR9101
012025041502ALUP11      010ALUPAR      UNT     N2   R$  000000000292000000000029910000000002917000000000297100000000029900000000002971000000000299003534000000000000850200000000002526615100000000000000009999123100000010000000000000BRALUPCDAM15121
012025041502ALUP3       010ALUPAR      ON      N2   R$  000000000098000000000010120000000000980000000000100000000000009990000000000981000000000100600085000000000000009500000000000009506700000000000000009999123100000010000000000000BRALUPACNOR8121
012025041502ALUP4       010ALUPAR      PN      N2   R$  000000000095300000000009890000000000953000000000097900000000009840000000000982000000000098500105000000000000016000000000000015667700000000000000009999123100000010000000000000BRALUPACNPR5121
012025041502AMAR3       010LOJAS MARISAON      NM   R$  000000000013100000000001350000000000129000000000013100000000001320000000000130000000000013200293000000000000299400000000000039335500000000000000009999123100000010000000000000BRAMARACNOR4115
012025041502BRSR3       010BANRISUL    ON      N1   R$  000000000117200000000011890000000001166000000000117900000000011850000000001180000000000119000019000000000000002200000000000002594200000000000000009999123100000010000000000000BRBRSRACNOR3192
012025041502BRSR5       010BANRISUL    PNA     N1   R$  000000000158600000000015860000000001586000000000158600000000015860000000001352000000000158000001000000000000000100000000000000158600000000000000009999123100000010000000000000BRBRSRACNPA6196
012025041502BRSR6       010BANRISUL    PNB     N1   R$  000000000104500000000010660000000001045000000000105900000000010550000000001054000000000105501572000000000000718900000000000761432100000000000000009999123100000010000000000000BRBRSRACNPB4195
012025041502BRST3       010BRISANET    ON      NM   R$  000000000024900000000002580000000000249000000000025600000000002580000000000256000000000025800604000000000000294800000000000075493500000000000000009999123100000010000000000000BRBRSTACNOR9101
012025041502BSLI3       010BRB BANCO   ON  EJ       R$  000000000092300000000009430000000000890000000000090400000000009200000000000892000000000092000037000000000000007200000000000006508900000000000000009999123100000010000000000000BRBSLIACNOR5197
012025041502BSLI4       010BRB BANCO   PN  EJ       R$  000000000093300000000010000000000000933000000000096600000000010000000000000956000000000100000039000000000000005600000000000005414400000000000000009999123100000010000000000000BRBSLIACNPR2197
012025041502BEES3       010BANESTES    ON           R$  000000000083900000000008510000000000829000000000083700000000008310000000000831000000000083500094000000000000017600000000000014738100000000000000009999123100000010000000000000BRBEESACNOR9403
012025041502BEES4       010BANESTES    PN           R$  000000000085000000000008670000000000848000000000085500000000008600000000000856000000000086000015000000000000002900000000000002482300000000000000009999123100000010000000000000BRBEESACNPR6328
012025041502GGPS3       010GPS         ON  ED  NM   R$  000000000136500000000013790000000001352000000000136400000000013560000000001355000000000137205625000000000001796000000000002451194300000000000000009999123100000010000000000000BRGGPSACNOR9104
012025041502GMAT3       010GRUPO MATEUSON      NM   R$  000000000074700000000007480000000000735000000000073900000000007440000000000743000000000074507137000000000003109500000000002300772700000000000000009999123100000010000000000000BRGMATACNOR7105
012025041502GOAU3       010GERDAU MET  ON      N1   R$  000000000087700000000008770000000000856000000000086100000000008580000000000856000000000086200140000000000000024100000000000020769300000000000000009999123100000010000000000000BRGOAUACNOR1270
012025041502GOAU4       010GERDAU MET  PN      N1   R$  000000000084500000000008460000000000826000000000083000000000008270000000000827000000000082908842000000000012179600000000010116482100000000000000009999123100000010000000000000BRGOAUACNPR8271
012025041502LUPA3       010LUPATECH    ON      NM   R$  000000000012600000000001300000000000124000000000012800000000001300000000000128000000000013000137000000000000084800000000000010877300000000000000009999123100000010000000000000BRLUPAACNOR8112
012025041502LUXM4       010TREVISA     PN           R$  000000000120000000000012000000000001200000000000120000000000012000000000001103000000000120000001000000000000000100000000000000120000000000000000009999123100000010000000000000BRLUXMACNPR4052
012025041502LVTC3       010WDC NETWORKSON      NM   R$  000000000030400000000003040000000000291000000000029700000000002960000000000293000000000029700036000000000000020800000000000006190400000000000000009999123100000010000000000000BRLVTCACNOR4102
012025041502LWSA3       010LWSA        ON      NM   R$  000000000029900000000003040000000000295000000000029900000000003020000000000301000000000030306896000000000006060100000000001817328200000000000000009999123100000010000000000000BRLWSAACNOR8104
012025041502MATD3       010MATER DEI   ON      NM   R$  000000000039600000000004120000000000394000000000040300000000004120000000000408000000000041200914000000000000246700000000000099595700000000000000009999123100000010000000000000BRMATDACNOR4104
012025041502MBLY3       010MOBLY       ON      NM   R$  000000000009800000000001000000000000098000000000009800000000000990000000000099000000000010000083000000000000138500000000000013708700000000000000009999123100000010000000000000BRMBLYACNOR5101
012025041502MDIA3       010M.DIASBRANCOON      NM   R$  000000000239600000000024350000000002384000000000240900000000024190000000002417000000000241901906000000000000325400000000000784024700000000000000009999123100000010000000000000BRMDIAACNOR7139
012025041502MDNE3       010MOURA DUBEUXON      NM   R$  000000000156500000000015660000000001502000000000151900000000015060000000001506000000000151001753000000000000354000000000000537935800000000000000009999123100000010000000000000BRMDNEACNOR9101
012025041502HAGA3       010HAGA S/A    ON           R$  000000000021500000000002270000000000215000000000022600000000002180000000000217000000000023100009000000000000012700000000000002872900000000000000009999123100000010000000000000BRHAGAACNOR7103
012025041502HAGA4       010HAGA S/A    PN           R$  000000000012100000000001210000000000117000000000011900000000001170000000000117000000000012100004000000000000000400000000000000047600000000000000009999123100000010000000000000BRHAGAACNPR4103
012025041502HAPV3       010HAPVIDA     ON      NM   R$  000000000022500000000002260000000000220000000000022200000000002210000000000220000000000022116901000000000030568000000000006799627800000000000000009999123100000010000000000000BRHAPVACNOR4116
012025041502AMBP3       010AMBIPAR     ON      NM   R$  000000001310000000000149400000000012903000000001397400000000142100000000014210000000001449000915000000000000162700000000002273595500000000000000009999123100000010000000000000BRAMBPACNOR6104
012025041502AMOB3       010AUTOMOB     ON      NM   R$  000000000002400000000000250000000000023000000000002300000000000240000000000023000000000002402945000000000010732200000000000257126700000000000000009999123100000010000000000000BRAMOBACNOR9100
012025041502ANIM3       010ANIMA       ON      NM   R$  000000000025500000000002670000000000255000000000026100000000002660000000000264000000000026608176000000000011099900000000002900695800000000000000009999123100000010000000000000BRANIMACNOR6109
012025041502HYPE3       010HYPERA      ON      NM   R$  000000000195300000000019980000000001953000000000198400000000019780000000001977000000000197806518000000000001743500000000003459212300000000000000009999123100000010000000000000BRHYPEACNOR0146
012025041502JALL3       010JALLESMACHADON      NM   R$  000000000040700000000004070000000000396000000000039900000000003980000000000398000000000040100420000000000000223700000000000089365200000000000000009999123100000010000000000000BRJALLACNOR0106
012025041502CRFB3       010CARREFOUR BRON      NM   R$  000000000082700000000008300000000000824000000000082800000000008290000000000827000000000082907047000000000028613900000000023701390500000000000000009999123100000010000000000000BRCRFBACNOR2117
012025041502CRPG5       010CRISTAL     PNA          R$  000000000182500000000018700000000001825000000000184900000000018700000000001830000000000189700007000000000000001200000000000002219100000000000000009999123100000010000000000000BRCRPGACNPA3119
012025041502CRPG6       010CRISTAL     PNB          R$  000000000187800000000018860000000001878000000000188100000000018860000000001851000000000189000004000000000000000500000000000000940700000000000000009999123100000010000000000000BRCRPGACNPB1119
012025041502CSAN3       010COSAN       ON      NM   R$  000000000071900000000007270000000000699000000000071000000000007050000000000703000000000070515093000000000011659100000000008282530800000000000000009999123100000010000000000000BRCSANACNOR6126
012025041502JBSS3       010JBS         ON      NM   R$  000000000430000000000043560000000004276000000000430300000000043000000000004299000000000430927726000000000008156200000000035101012800000000000000009999123100000010000000000000BRJBSSACNOR8124
012025041502NUTR3       010NUTRIPLANT  ON      MA   R$  000000000037200000000003730000000000369000000000037000000000003690000000000369000000000037500011000000000000001100000000000000407800000000000000009999123100000010000000000000BRNUTRACNOR0104
012025041502ODPV3       010ODONTOPREV  ON  ED  NM   R$  000000000105000000000010740000000001046000000000106200000000010620000000001062000000000106804807000000000001197300000000001272061400000000000000009999123100000010000000000000BRODPVACNOR4208
012025041502OFSA3       010OUROFINO S/AON      NM   R$  000000000213100000000022800000000002131000000000222700000000022800000000002230000000000228000029000000000000003800000000000008464500000000000000009999123100000010000000000000BROFSAACNOR7120
012025041502ARML3       010ARMAC       ON      NM   R$  000000000042000000000004470000000000417000000000043300000000004310000000000431000000000043404830000000000001787400000000000774836000000000000000009999123100000010000000000000BRARMLACNOR1113
012025041502ASAI3       010ASSAI       ON      NM   R$  000000000083200000000008350000000000811000000000082100000000008290000000000827000000000083022453000000000018497900000000015200000100000000000000009999123100000010000000000000BRASAIACNOR0107
012025041502BBDC3       010BRADESCO    ON      N1   R$  000000000113400000000011500000000001133000000000114300000000011380000000001137000000000114307120000000000007650000000000008747684000000000000000009999123100000010000000000000BRBBDCACNOR1784
012025041502BBDC4       010BRADESCO    PN      N1   R$  000000000127200000000012850000000001270000000000127700000000012740000000001274000000000127621176000000000020639200000000026360749500000000000000009999123100000010000000000000BRBBDCACNPR8784
012025041502BPAC11      010BTGP BANCO  UNT     N2   R$  000000000343700000000034600000000003407000000000343000000000034300000000003430000000000343216653000000000004435700000000015218770700000000000000009999123100000010000000000000BRBPACUNT006123
012025041502BPAC3       010BTGP BANCO  ON      N2   R$  000000000193900000000019620000000001896000000000192500000000019130000000001843000000000192300025000000000000003800000000000007318400000000000000009999123100000010000000000000BRBPACACNOR7136
012025041502BPAC5       010BTGP BANCO  PNA     N2   R$  000000000074800000000007750000000000746000000000076500000000007600000000000760000000000076800031000000000000004400000000000003368700000000000000009999123100000010000000000000BRBPACACNPA0136
012025041502CAMB3       010CAMBUCI     ON           R$  000000000094600000000009570000000000946000000000094900000000009570000000000950000000000095700058000000000000011300000000000010730000000000000000009999123100000010000000000000BRCAMBACNOR4133
012025041502CAML3       010CAMIL       ON      NM   R$  000000000040400000000004060000000000396000000000039900000000003960000000000396000000000039903195000000000001414900000000000565879000000000000000009999123100000010000000000000BRCAMLACNOR3131
012025041502CASH3       010MELIUZ      ON      NM   R$  000000000034200000000003980000000000336000000000037300000000003850000000000385000000000038607250000000000008049800000000003003064300000000000000009999123100000010000000000000BRCASHACNOR8107
012025041502CBAV3       010CBA         ON      NM   R$  000000000040400000000004070000000000399000000000040300000000004010000000000400000000000040106516000000000004303300000000001734904300000000000000009999123100000010000000000000BRCBAVACNOR5104
012025041502CSED3       010CRUZEIRO EDUON      NM   R$  000000000037400000000003800000000000366000000000037100000000003740000000000374000000000037800610000000000001010800000000000375276800000000000000009999123100000010000000000000BRCSEDACNOR9105
012025041502CSMG3       010COPASA      ON  ATZ NM   R$  000000000201000000000020250000000001993000000000201000000000020060000000002006000000000200707265000000000001606000000000003229494300000000000000009999123100000010000000000000BRCSMGACNOR5179
012025041502ELMD3       010ELETROMIDIA ON      NM   R$  000000000306500000000030650000000003047000000000305400000000030550000000003051000000000305500496000000000000134000000000000409294000000000000000009999123100000010000000000000BRELMDACNOR3101
012025041502EMAE4       010EMAE        PN           R$  000000000325000000000032500000000003153000000000321800000000032280000000003200000000000322800029000000000000006200000000000019952800000000000000009999123100000010000000000000BREMAEACNPR1126
012025041502EMBR3       010EMBRAER     ON      NM   R$  000000000635100000000065560000000006351000000000648400000000064650000000006464000000000646523404000000000005819400000000037736244500000000000000009999123100000010000000000000BREMBRACNOR4192
012025041502AERI3       010AERIS       ON      NM   R$  000000000036700000000003830000000000367000000000037700000000003740000000000374000000000037600257000000000000299100000000000112850600000000000000009999123100000010000000000000BRAERIACNOR4102
012025041502AGRO3       010BRASILAGRO  ON      NM   R$  000000000224400000000022440000000002195000000000221000000000022050000000002200000000000220500905000000000000121900000000000269425200000000000000009999123100000010000000000000BRAGROACNOR7115
012025041502AHEB6       010SPTURIS     PNB          R$  000000000550000000000055000000000005500000000000550000000000055000000000005000000000000600000001000000000000000100000000000000550000000000000000009999123100000010000000000000BRAHEBACNPB1106
012025041502ALLD3       010ALLIED      ON      NM   R$  000000000068100000000006890000000000677000000000068400000000006860000000000683000000000068600201000000000000041200000000000028184100000000000000009999123100000010000000000000BRALLDACNOR3107
012025041502EKTR4       010ELEKTRO     PN  ED       R$  000000000504900000000050490000000005049000000000504900000000050490000000004941000000000504000001000000000000000100000000000000504900000000000000009999123100000010000000000000BREKTRACNPR7169
012025041502ELET3       010ELETROBRAS  ON      N1   R$  000000000423400000000042390000000004174000000000419900000000041740000000004174000000000418016075000000000007147700000000030019793100000000000000009999123100000010000000000000BRELETACNOR6161
012025041502ELET6       010ELETROBRAS  PNB     N1   R$  000000000456500000000045920000000004513000000000453300000000045260000000004524000000000452605381000000000001046300000000004743538200000000000000009999123100000010000000000000BRELETACNPB7078
012025041502EZTC3       010EZTEC       ON      NM   R$  000000000145100000000014700000000001430000000000144200000000014430000000001440000000000144308275000000000002470000000000003563327000000000000000009999123100000010000000000000BREZTCACNOR0128
012025041502FESA3       010FERBASA     ON      N1   R$  000000000121600000000012160000000001180000000000119800000000011800000000001180000000000129900002000000000000000200000000000000239600000000000000009999123100000010000000000000BRFESAACNOR8191
012025041502FESA4       010FERBASA     PN      N1   R$  000000000072100000000007230000000000709000000000071200000000007110000000000710000000000071400469000000000000188400000000000134295200000000000000009999123100000010000000000000BRFESAACNPR5087
012025041502FHER3       010FER HERINGERON      NM   R$  000000000037300000000003900000000000363000000000037300000000003630000000000362000000000036900142000000000000022100000000000008245300000000000000009999123100000010000000000000BRFHERACNOR5103
012025041502FICT3       010FICTORALIMENON           R$  000000000039800000000003980000000000388000000000039100000000003910000000000387000000000039000092000000000000034200000000000013379700000000000000009999123100000010000000000000BRFICTACNOR3100
012025041502FIQE3       010UNIFIQUE    ON      NM   R$  000000000035800000000003640000000000356000000000035800000000003570000000000357000000000035900957000000000000702400000000000251587700000000000000009999123100000010000000000000BRFIQEACNOR5108
012025041502BBSE3       010BBSEGURIDADEON      NM   R$  000000000401200000000040810000000004007000000000406100000000040610000000004060000000000406111619000000000003203900000000013011142400000000000000009999123100000010000000000000BRBBSEACNOR5126
012025041502CPFE3       010CPFL ENERGIAON      NM   R$  000000000380700000000038460000000003790000000000381500000000038340000000003833000000000383605307000000000001347300000000005140443300000000000000009999123100000010000000000000BRCPFEACNOR0137
012025041502CPLE3       010COPEL       ON      N2   R$  000000000098700000000009960000000000983000000000099000000000009880000000000986000000000098806707000000000004513600000000004468630200000000000000009999123100000010000000000000BRCPLEACNOR8151
012025041502CPLE5       010COPEL       PNA     N2   R$  000000000098000000000009800000000000980000000000098000000000009800000000000965000000000104100001000000000000000100000000000000098000000000000000009999123100000010000000000000BRCPLEACNPA1149
012025041502CPLE6       010COPEL       PNB     N2   R$  000000000108900000000011030000000001085000000000109400000000010900000000001089000000000109118273000000000011832200000000012952017000000000000000009999123100000010000000000000BRCPLEACNPB9148
012025041502DOTZ3       010DOTZ SA     ON      NM   R$  000000000036900000000003720000000000347000000000036000000000003710000000000346000000000037200052000000000000011700000000000004219600000000000000009999123100000010000000000000BRDOTZACNOR7101
012025041502DTCY3       010DTCOM-DIRECTON           R$  000000000042000000000004200000000000420000000000042000000000004200000000000375000000000041800001000000000000000100000000000000042000000000000000009999123100000010000000000000BRDTCYACNOR5109
012025041502FLRY3       010FLEURY      ON      NM   R$  000000000121200000000012140000000001196000000000120800000000012130000000001208000000000121404000000000000001200700000000001451443800000000000000009999123100000010000000000000BRFLRYACNOR5141
012025041502EALT4       010ACO ALTONA  PN           R$  000000000137200000000013920000000001362000000000137900000000013740000000001360000000000138200062000000000000017600000000000024285900000000000000009999123100000010000000000000BREALTACNPR1138
012025041502ECOR3       010ECORODOVIAS ON      NM   R$  000000000063100000000006370000000000622000000000063000000000006300000000000630000000000063604633000000000003342400000000002108461100000000000000009999123100000010000000000000BRECORACNOR8121
012025041502EGIE3       010ENGIE BRASILON      NM   R$  000000000395200000000039740000000003927000000000394800000000039570000000003956000000000395804901000000000001135900000000004485395500000000000000009999123100000010000000000000BREGIEACNOR9128
012025041502ESPA3       010ESPACOLASER ON      NM   R$  000000000007200000000000750000000000071000000000007300000000000730000000000073000000000007400147000000000000953200000000000069695000000000000000009999123100000010000000000000BRESPAACNOR7103
012025041502ETER3       010ETERNIT     ON      NM   R$  000000000046400000000004690000000000456000000000045900000000004560000000000456000000000046000305000000000000098800000000000045357000000000000000009999123100000010000000000000BRETERACNOR3246
012025041502EUCA4       010EUCATEX     PN      N1   R$  000000000124800000000012650000000001230000000000124800000000012450000000001245000000000125500112000000000000015500000000000019344300000000000000009999123100000010000000000000BREUCAACNPR8045
012025041502EVEN3       010EVEN        ON      NM   R$  000000000057000000000005740000000000565000000000056900000000005700000000000570000000000057101289000000000000444000000000000252810900000000000000009999123100000010000000000000BREVENACNOR8120
012025041502AZZA3       010AZZAS 2154  ON      NM   R$  000000000265300000000027160000000002625000000000268300000000027000000000002699000000000270105393000000000001127500000000003025217000000000000000009999123100000010000000000000BRAZZAACNOR9101
012025041502B3SA3       010B3          ON      NM   R$  000000000120800000000012350000000001206000000000122400000000012260000000001225000000000122630148000000000030452400000000037282889900000000000000009999123100000010000000000000BRB3SAACNOR6136
012025041502COCE5       010COELCE      PNA          R$  000000000251400000000025150000000002450000000000249300000000024980000000002480000000000249900011000000000000001500000000000003739800000000000000009999123100000010000000000000BRCOCEACNPA3148
012025041502COGN3       010COGNA ON    ON      NM   R$  000000000023000000000002370000000000229000000000023200000000002350000000000234000000000023617028000000000053925300000000012532355500000000000000009999123100000010000000000000BRCOGNACNOR2106
012025041502SNSY5       010SANSUY      PNA          R$  000000000044700000000004470000000000447000000000044700000000004470000000000427000000000044300001000000000000000100000000000000044700000000000000009999123100000010000000000000BRSNSYACNPA5111
012025041502SOJA3       010BOA SAFRA   ON      NM   R$  000000000102500000000010590000000001018000000000103400000000010360000000001035000000000103602776000000000001055300000000001091264100000000000000009999123100000010000000000000BRSOJAACNOR9107
012025041502DXCO3       010DEXCO       ON      NM   R$  000000000051300000000005150000000000502000000000050700000000005060000000000505000000000050606655000000000003635200000000001843415200000000000000009999123100000010000000000000BRDXCOACNOR8107
012025041502EALT3       010ACO ALTONA  ON           R$  000000000139000000000013900000000001390000000000139000000000013900000000001380000000000142000003000000000000000500000000000000695000000000000000009999123100000010000000000000BREALTACNOR4138
012025041502MEAL3       010IMC S/A     ON      NM   R$  000000000012200000000001270000000000122000000000012300000000001230000000000123000000000012400129000000000000163700000000000020256200000000000000009999123100000010000000000000BRMEALACNOR9105
012025041502MELK3       010MELNICK     ON      NM   R$  000000000033000000000003300000000000324000000000032600000000003280000000000327000000000032800440000000000000229300000000000074863000000000000000009999123100000010000000000000BRMELKACNOR8113
012025041502MGLU3       010MAGAZ LUIZA ON      NM   R$  000000000105000000000010780000000001024000000000104700000000010450000000001043000000000104519882000000000023115000000000024208388600000000000000009999123100000010000000000000BRMGLUACNOR2126
012025041502PRIO3       010PETRORIO    ON      NM   R$  000000000334600000000033660000000003281000000000331200000000033030000000003303000000000330534521000000000013880600000000045976308700000000000000009999123100000010000000000000BRPRIOACNOR1108
012025041502REAG3       010REAGINVEST  ON      NM   R$  000000000043000000000004330000000000428000000000042900000000004280000000000428000000000043300016000000000000003100000000000001331500000000000000009999123100000010000000000000BRREAGACNOR8101
012025041502RCSL3       010RECRUSUL    ON           R$  000000000028600000000002950000000000285000000000029000000000002910000000000291000000000029300961000000000000711300000000000206726900000000000000009999123100000010000000000000BRRCSLACNOR4134
012025041502RCSL4       010RECRUSUL    PN           R$  000000000014700000000001530000000000145000000000014800000000001470000000000146000000000014702861000000000003099600000000000458805900000000000000009999123100000010000000000000BRRCSLACNPR1134
012025041502RDNI3       010RNI         ON      NM   R$  000000000027300000000002730000000000265000000000026900000000002690000000000265000000000026900019000000000000003100000000000000833900000000000000009999123100000010000000000000BRRDNIACNOR9116
012025041502RDOR3       010REDE D OR   ON      NM   R$  000000000295700000000030000000000002918000000000297100000000029930000000002993000000000299420985000000000005195400000000015437065700000000000000009999123100000010000000000000BRRDORACNOR8116
012025041502SMFT3       010SMART FIT   ON      NM   R$  000000000218100000000022340000000002181000000000221400000000022180000000002218000000000223007808000000000002621100000000005803424400000000000000009999123100000010000000000000BRSMFTACNOR1114
012025041502SMTO3       010SAO MARTINHOON      NM   R$  000000000198600000000020020000000001881000000000192100000000018810000000001881000000000188206968000000000002258600000000004339675600000000000000009999123100000010000000000000BRSMTOACNOR3128
012025041502ITUB3       010ITAUUNIBANCOON      N1   R$  000000000283900000000028810000000002835000000000287000000000028750000000002872000000000287601200000000000000372100000000001068169200000000000000009999123100000010000000000000BRITUBACNOR4351
012025041502ITUB4       010ITAUUNIBANCOPN      N1   R$  000000000322900000000032790000000003220000000000326600000000032740000000003274000000000327543575000000000024967200000000081545386600000000000000009999123100000010000000000000BRITUBACNPR1351
012025041502RECV3       010PETRORECSA  ON      NM   R$  000000000134700000000013620000000001341000000000135000000000013530000000001352000000000135308752000000000002451300000000003310446000000000000000009999123100000010000000000000BRRECVACNOR3108
012025041502REDE3       010REDE ENERGIAON           R$  000000000064200000000006550000000000642000000000065100000000006500000000000650000000000065600009000000000000000900000000000000586300000000000000009999123100000010000000000000BRREDEACNOR7130
012025041502RENT3       010LOCALIZA    ON      NM   R$  000000000390000000000039780000000003880000000000393500000000039400000000003939000000000394025285000000000008923900000000035123736200000000000000009999123100000010000000000000BRRENTACNOR4199
012025041502SRNA3       010SERENA      ON      NM   R$  000000000092800000000009660000000000925000000000094300000000009430000000000942000000000094410297000000000005270800000000004974357500000000000000009999123100000010000000000000BRSRNAACNOR4100
012025041502STBP3       010SANTOS BRP  ON      NM   R$  000000000133500000000013410000000001334000000000133700000000013410000000001339000000000134105798000000000003991100000000005339038200000000000000009999123100000010000000000000BRSTBPACNOR3135
012025041502SUZB3       010SUZANO S.A. ON  ATZ NM   R$  000000000524000000000052400000000005160000000000518900000000051950000000005193000000000519815963000000000003495400000000018139211100000000000000009999123100000010000000000000BRSUZBACNOR0132
012025041502MWET4       010WETZEL S/A  PN           R$  000000000115000000000011500000000001150000000000115000000000011500000000001151000000000132700001000000000000000200000000000000230000000000000000009999123100000010000000000000BRMWETACNPR3118
012025041502MYPK3       010IOCHP-MAXIONON      NM   R$  000000000111700000000011310000000001104000000000112100000000011270000000001125000000000112703748000000000000746300000000000836621700000000000000009999123100000010000000000000BRMYPKACNOR7157
012025041502NEOE3       010NEOENERGIA  ON      NM   R$  000000000205400000000020950000000002044000000000207000000000020840000000002082000000000208405096000000000002368500000000004902846100000000000000009999123100000010000000000000BRNEOEACNOR3124
012025041502NGRD3       010NEOGRID     ON      NM   R$  000000000200300000000020310000000001968000000000200100000000020000000000001978000000000202400163000000000000022900000000000045829800000000000000009999123100000010000000000000BRNGRDACNOR3106
012025041502NTCO3       010GRUPO NATURAON      NM   R$  000000000092500000000009580000000000924000000000094200000000009490000000000948000000000095020213000000000011895900000000011216659900000000000000009999123100000010000000000000BRNTCOACNOR5107
012025041502PFRM3       010PROFARMA    ON      NM   R$  000000000072000000000007300000000000705000000000071900000000007290000000000726000000000072900735000000000000298100000000000214380600000000000000009999123100000010000000000000BRPFRMACNOR1119
012025041502CMIG4       010CEMIG       PN      N1   R$  000000000102200000000010380000000001018000000000102900000000010300000000001029000000000103118897000000000011809200000000012160581200000000000000009999123100000010000000000000BRCMIGACNPR3247
012025041502CSUD3       010CSU DIGITAL ON  EJ  NM   R$  000000000167900000000016790000000001621000000000164700000000016600000000001650000000000166000167000000000000027900000000000045965200000000000000009999123100000010000000000000BRCSUDACNOR5113
012025041502CURY3       010CURY S/A    ON      NM   R$  000000000266300000000027150000000002635000000000268900000000027060000000002706000000000271009725000000000001650900000000004439752100000000000000009999123100000010000000000000BRCURYACNOR3111
012025041502CVCB3       010CVC BRASIL  ON      NM   R$  000000000022400000000002260000000000216000000000021900000000002180000000000217000000000021804232000000000012710400000000002788893000000000000000009999123100000010000000000000BRCVCBACNOR1117
012025041502ENEV3       010ENEVA       ON      NM   R$  000000000123700000000012480000000001225000000000123500000000012330000000001228000000000123311180000000000004507300000000005566805500000000000000009999123100000010000000000000BRENEVACNOR8106
012025041502ATED3       010ATOM EDUC   ON           R$  000000000011000000000001110000000000109000000000010900000000001110000000000109000000000011100009000000000000004200000000000000461300000000000000009999123100000010000000000000BRATEDACNOR1100
012025041502AURE3       010AUREN       ON      NM   R$  000000000078300000000007970000000000773000000000078400000000007880000000000786000000000079007452000000000004375700000000003434341000000000000000009999123100000010000000000000BRAUREACNOR9104
012025041502AVLL3       010ALPHAVILLE  ON      NM   R$  000000000020200000000002020000000000201000000000020100000000002010000000000199000000000020200004000000000000003300000000000000664500000000000000009999123100000010000000000000BRAVLLACNOR5103
012025041502AZEV3       010AZEVEDO     ON           R$  000000000007500000000000770000000000072000000000007400000000000730000000000072000000000007300323000000000000960900000000000071153200000000000000009999123100000010000000000000BRAZEVACNOR0122
012025041502BPAN4       010BANCO PAN   PN      N1   R$  000000000073200000000007450000000000727000000000073900000000007400000000000740000000000074103326000000000000978800000000000724078200000000000000009999123100000010000000000000BRBPANACNPR1116
012025041502BRAP3       010BRADESPAR   ON      N1   R$  000000000168400000000016840000000001628000000000164300000000016350000000001635000000000164400202000000000000033500000000000055071800000000000000009999123100000010000000000000BRBRAPACNOR5150
012025041502BRAP4       010BRADESPAR   PN      N1   R$  000000000174200000000017470000000001703000000000171500000000017120000000001711000000000171206430000000000003723400000000006386161000000000000000009999123100000010000000000000BRBRAPACNPR2150
012025041502CEAB3       010CEA MODAS   ON      NM   R$  000000000124000000000012460000000001214000000000123400000000012450000000001243000000000124506233000000000003019200000000003727440500000000000000009999123100000010000000000000BRCEABACNOR1103
012025041502CEBR3       010CEB         ON           R$  000000000180500000000018050000000001758000000000179200000000018000000000001780000000000180000072000000000000027000000000000048398000000000000000009999123100000010000000000000BRCEBRACNOR5126
012025041502CEBR5       010CEB         PNA          R$  000000000187400000000018750000000001850000000000187100000000018740000000001860000000000187500015000000000000005000000000000009355200000000000000009999123100000010000000000000BRCEBRACNPA8125
012025041502CEBR6       010CEB         PNB          R$  000000000199700000000020220000000001997000000000201300000000020100000000002010000000000201900022000000000000003500000000000007046500000000000000009999123100000010000000000000BRCEBRACNPB6125
012025041502BLAU3       010BLAU        ON      NM   R$  000000000127700000000012930000000001260000000000127300000000012750000000001270000000000127501052000000000000179900000000000229031500000000000000009999123100000010000000000000BRBLAUACNOR8116
012025041502PNVL3       010DIMED       ON      NM   R$  000000000088200000000008850000000000873000000000088000000000008830000000000880000000000088400799000000000000128200000000000112820800000000000000009999123100000010000000000000BRPNVLACNOR9210
012025041502POMO3       010MARCOPOLO   ON      N2   R$  000000000046800000000004960000000000464000000000048300000000004900000000000490000000000049101489000000000000801100000000000387177100000000000000009999123100000010000000000000BRPOMOACNOR0101
012025041502POMO4       010MARCOPOLO   PN      N2   R$  000000000059800000000006430000000000592000000000062300000000006390000000000638000000000063914631000000000017196400000000010729470100000000000000009999123100000010000000000000BRPOMOACNPR7101
012025041502PORT3       010WILSON SONS ON      NM   R$  000000000172800000000017300000000001717000000000171900000000017180000000001716000000000171801743000000000000881900000000001516596000000000000000009999123100000010000000000000BRPORTACNOR8111
012025041502POSI3       010POSITIVO TECON      NM   R$  000000000050200000000005170000000000496000000000050700000000005120000000000508000000000051201728000000000000993800000000000504476000000000000000009999123100000010000000000000BRPOSIACNOR9116
012025041502RANI3       010IRANI       ON      NM   R$  000000000072500000000007250000000000714000000000071800000000007160000000000716000000000071800933000000000000283600000000000203660100000000000000009999123100000010000000000000BRRANIACNOR5075
012025041502RAPT3       010RANDON PART ON      N1   R$  000000000078800000000008260000000000785000000000080600000000008110000000000795000000000081100065000000000000016000000000000012909900000000000000009999123100000010000000000000BRRAPTACNOR7164
012025041502RAPT4       010RANDON PART PN      N1   R$  000000000082000000000008610000000000817000000000084600000000008440000000000842000000000084608479000000000006307200000000005336831900000000000000009999123100000010000000000000BRRAPTACNPR4164
012025041502DASA3       010DASA        ON      NM   R$  000000000018100000000001850000000000179000000000018100000000001820000000000182000000000018300737000000000000318200000000000057852300000000000000009999123100000010000000000000BRDASAACNOR1123
012025041502DESK3       010DESKTOP     ON      NM   R$  000000000083900000000008540000000000834000000000084700000000008480000000000845000000000085000555000000000000528500000000000447901300000000000000009999123100000010000000000000BRDESKACNOR2104
012025041502DEXP3       010DEXXOS PAR  ON      N1   R$  000000000077000000000007850000000000769000000000077600000000007840000000000779000000000078500458000000000000069000000000000053576600000000000000009999123100000010000000000000BRDEXPACNOR1106
012025041502DEXP4       010DEXXOS PAR  PN      N1   R$  000000000075000000000007520000000000744000000000074900000000007510000000000750000000000075200140000000000000015700000000000011765800000000000000009999123100000010000000000000BRDEXPACNPR8106
012025041502DIRR3       010DIRECIONAL  ON      NM   R$  000000000332500000000033640000000003296000000000333400000000033550000000003355000000000335607033000000000001114200000000003715096600000000000000009999123100000010000000000000BRDIRRACNOR0120
012025041502DMVF3       010D1000VFARMA ON      NM   R$  000000000058600000000006000000000000585000000000059000000000006000000000000595000000000060000194000000000000060900000000000035979800000000000000009999123100000010000000000000BRDMVFACNOR9100
012025041502DOHL4       010DOHLER      PN           R$  000000000037200000000003850000000000372000000000037600000000003810000000000366000000000038200011000000000000003000000000000001130700000000000000009999123100000010000000000000BRDOHLACNPR9066
012025041502ENGI11      010ENERGISA    UNT     N2   R$  000000000421600000000042900000000004202000000000424000000000042520000000004252000000000427316640000000000008557100000000036285340500000000000000009999123100000010000000000000BRENGICDAM16137
012025041502ENGI3       010ENERGISA    ON      N2   R$  000000000116900000000011880000000001160000000000117100000000011600000000001137000000000120000008000000000000000800000000000000937200000000000000009999123100000010000000000000BRENGIACNOR0147
012025041502ENGI4       010ENERGISA    PN      N2   R$  000000000076700000000007780000000000758000000000076900000000007720000000000768000000000077100019000000000000003000000000000002308300000000000000009999123100000010000000000000BRENGIACNPR7143
012025041502ENJU3       010ENJOEI      ON      NM   R$  000000000010600000000001070000000000104000000000010500000000001070000000000106000000000010700206000000000000347800000000000036758200000000000000009999123100000010000000000000BRENJUACNOR9100
012025041502EPAR3       010EMBPAR S/A  ON           R$  000000000047100000000004710000000000469000000000047000000000004690000000000470000000000047800013000000000000006800000000000003196000000000000000009999123100000010000000000000BREPARACNOR9106
012025041502EQPA3       010EQTL PARA   ON           R$  000000000062900000000006290000000000617000000000062000000000006210000000000621000000000062800005000000000000000800000000000000496300000000000000009999123100000010000000000000BREQPAACNOR1111
012025041502EQTL3       010EQUATORIAL  ON      NM   R$  000000000342000000000034540000000003407000000000343100000000034360000000003434000000000343719169000000000005996900000000020580329500000000000000009999123100000010000000000000BREQTLACNOR0132
012025041502BRAV3       010BRAVA       ON      NM   R$  000000000171100000000017690000000001701000000000172800000000017230000000001723000000000172413565000000000009087800000000015708478500000000000000009999123100000010000000000000BRBRAVACNOR3101
012025041502CMIN3       010CSNMINERACAOON      N2   R$  000000000060500000000006120000000000585000000000059500000000005950000000000594000000000059507750000000000005347000000000003186557200000000000000009999123100000010000000000000BRCMINACNOR2113
012025041502CXSE3       010CAIXA SEGURION      NM   R$  000000000154100000000015890000000001541000000000157600000000015690000000001568000000000157213975000000000004325500000000006819143200000000000000009999123100000010000000000000BRCXSEACNOR7110
012025041502CYRE3       010CYRELA REALTON      NM   R$  000000000250100000000025750000000002501000000000254900000000025620000000002561000000000256413358000000000004243600000000010817996400000000000000009999123100000010000000000000BRCYREACNOR7140
012025041502HBOR3       010HELBOR      ON      NM   R$  000000000018500000000001850000000000180000000000018200000000001810000000000180000000000018100501000000000000678900000000000123593500000000000000009999123100000010000000000000BRHBORACNOR3118
012025041502HBRE3       010HBR REALTY  ON      NM   R$  000000000036000000000003690000000000347000000000035500000000003530000000000352000000000035300456000000000000318500000000000113324300000000000000009999123100000010000000000000BRHBREACNOR4100
012025041502CEDO4       010CEDRO       PN      N1   R$  000000000207400000000020740000000002000000000000203300000000020210000000002005000000000206000021000000000000002900000000000005896300000000000000009999123100000010000000000000BRCEDOACNPR5128
012025041502CGAS3       010COMGAS      ON           R$  000000001255000000000125500000000012510000000001253000000000125100000000012509000000001299900002000000000000000200000000000002506000000000000000009999123100000010000000000000BRCGASACNOR0165
012025041502CGAS5       010COMGAS      PNA          R$  000000001320000000000132000000000013100000000001310800000000131300000000013110000000001330000004000000000000000400000000000005243200000000000000009999123100000010000000000000BRCGASACNPA3162
012025041502CGRA4       010GRAZZIOTIN  PN           R$  000000000264700000000026940000000002647000000000267400000000026900000000002678000000000269500011000000000000001300000000000003476500000000000000009999123100000010000000000000BRCGRAACNPR9084
012025041502CLSC4       010CELESC      PN      N2   R$  000000000801100000000080640000000008005000000000802600000000080210000000008020000000000808400010000000000000001100000000000008828800000000000000009999123100000010000000000000BRCLSCACNPR3134
012025041502CMIG3       010CEMIG       ON      N1   R$  000000000145400000000014540000000001433000000000144300000000014520000000001439000000000145400498000000000000088300000000000127451100000000000000009999123100000010000000000000BRCMIGACNOR6246
012025041502AZEV4       010AZEVEDO     PN           R$  000000000008700000000000900000000000086000000000008700000000000890000000000088000000000008901077000000000002516600000000000221443300000000000000009999123100000010000000000000BRAZEVACNPR7122
012025041502AZTE3       010AZT ENERGIA ON           R$  000000000008800000000000920000000000088000000000008900000000000880000000000088000000000008900825000000000001672300000000000149202900000000000000009999123100000010000000000000BRAZTEACNOR4100
012025041502AZUL4       010AZUL        PN      N2   R$  000000000033800000000003470000000000311000000000032500000000003110000000000311000000000031214383000000000031137500000000010148965200000000000000009999123100000010000000000000BRAZULACNPR4105
012025041502BIOM3       010BIOMM       ON      MA   R$  000000000095600000000009570000000000938000000000094900000000009380000000000934000000000095300011000000000000001200000000000001139300000000000000009999123100000010000000000000BRBIOMACNOR2112
012025041502GRND3       010GRENDENE    ON      NM   R$  000000000055100000000005590000000000551000000000055500000000005530000000000553000000000055504895000000000001559400000000000866033300000000000000009999123100000010000000000000BRGRNDACNOR3176
012025041502GUAR3       010GUARARAPES  ON      NM   R$  000000000068300000000007270000000000673000000000071200000000007150000000000715000000000071706667000000000003157100000000002249799500000000000000009999123100000010000000000000BRGUARACNOR4173
012025041502GEPA4       010GER PARANAP PN           R$  000000000329900000000032990000000003299000000000329900000000032990000000003200000000000330000001000000000000000100000000000000329900000000000000009999123100000010000000000000BRGEPAACNPR9162
012025041502GFSA3       010GAFISA      ON      NM   R$  000000000017300000000001750000000000167000000000017000000000001670000000000167000000000016801068000000000002796900000000000477006200000000000000009999123100000010000000000000BRGFSAACNOR3125
012025041502GGBR3       010GERDAU      ON      N1   R$  000000000146600000000014660000000001434000000000144500000000014500000000001441000000000145200115000000000000027700000000000040026700000000000000009999123100000010000000000000BRGGBRACNOR1195
012025041502GGBR4       010GERDAU      PN      N1   R$  000000000151700000000015230000000001489000000000150100000000014980000000001498000000000149911479000000000006983900000000010484034300000000000000009999123100000010000000000000BRGGBRACNPR8195
012025041502LAND3       010TERRASANTAPAON      NM   R$  000000000147700000000014770000000001423000000000142800000000014260000000001424000000000142600109000000000000042200000000000060268000000000000000009999123100000010000000000000BRLANDACNOR9103
012025041502LAVV3       010LAVVI       ON      NM   R$  000000000096500000000009650000000000944000000000095200000000009560000000000955000000000095801078000000000000680300000000000648039800000000000000009999123100000010000000000000BRLAVVACNOR4115
012025041502LEVE3       010METAL LEVE  ON      NM   R$  000000000300500000000030260000000002993000000000300800000000030240000000003015000000000302401179000000000000184300000000000554414400000000000000009999123100000010000000000000BRLEVEACNOR2199
012025041502LJQQ3       010QUERO-QUERO ON      NM   R$  000000000025100000000002590000000000248000000000025300000000002590000000000257000000000025902599000000000001985600000000000504140900000000000000009999123100000010000000000000BRLJQQACNOR5105
012025041502LOGG3       010LOG COM PROPON      NM   R$  000000000187100000000019050000000001870000000000188400000000018750000000001875000000000188700993000000000000132600000000000249838100000000000000009999123100000010000000000000BRLOGGACNOR7108
012025041502LOGN3       010LOG-IN      ON      NM   R$  000000000214000000000021400000000002115000000000211900000000021180000000002118000000000212800053000000000000009400000000000019920800000000000000009999123100000010000000000000BRLOGNACNOR3105
012025041502LPSB3       010LOPES BRASILON      NM   R$  000000000013600000000001390000000000134000000000013600000000001360000000000134000000000013600138000000000000047700000000000006499700000000000000009999123100000010000000000000BRLPSBACNOR0114
012025041502LREN3       010LOJAS RENNERON      NM   R$  000000000129500000000013100000000001279000000000128700000000012800000000001280000000000128519628000000000012927800000000016640994300000000000000009999123100000010000000000000BRLRENACNOR1225
012025041502MTRE3       010MITRE REALTYON      NM   R$  000000000036500000000003660000000000352000000000035800000000003550000000000355000000000035600796000000000000545100000000000195198300000000000000009999123100000010000000000000BRMTREACNOR6121
012025041502MTSA4       010METISA      PN           R$  000000000397900000000040000000000003921000000000397300000000039210000000003920000000000403900010000000000000001300000000000005164900000000000000009999123100000010000000000000BRMTSAACNPR9075
012025041502MULT3       010MULTIPLAN   ON      N2   R$  000000000240800000000024270000000002380000000000239900000000024070000000002404000000000241214526000000000002688600000000006451837500000000000000009999123100000010000000000000BRMULTACNOR5142
012025041502RAIZ4       010RAIZEN      PN      N2   R$  000000000017700000000001780000000000173000000000017500000000001760000000000175000000000017607840000000000007699100000000001347999900000000000000009999123100000010000000000000BRRAIZACNPR6111
012025041502IFCM3       010INFRACOMM   ON      NM   R$  000000000000900000000000100000000000008000000000000900000000000100000000000009000000000001000859000000000009139600000000000083918600000000000000009999123100000010000000000000BRIFCMACNOR8103
012025041502IGTI11      010IGUATEMI S.AUNT     N1   R$  000000000193600000000019600000000001910000000000193500000000019510000000001950000000000195208303000000000002111700000000004086461100000000000000009999123100000010000000000000BRIGTICDAM16107
012025041502IGTI3       010IGUATEMI S.AON      N1   R$  000000000021200000000002240000000000212000000000021700000000002230000000000220000000000022400135000000000000041700000000000009073400000000000000009999123100000010000000000000BRIGTIACNOR8107
012025041502PGMN3       010PAGUE MENOS ON      NM   R$  000000000033800000000003400000000000324000000000032900000000003280000000000328000000000032901923000000000000825200000000000272010100000000000000009999123100000010000000000000BRPGMNACNOR8104
012025041502PINE3       010PINE        ON  EJ  N2   R$  000000000044300000000004600000000000441000000000045100000000004600000000000459000000000046000066000000000000024500000000000011069800000000000000009999123100000010000000000000BRPINEACNOR1155
012025041502PINE4       010PINE        PN  EJ  N2   R$  000000000043400000000004450000000000434000000000043800000000004390000000000437000000000043900348000000000000167100000000000073286700000000000000009999123100000010000000000000BRPINEACNPR8155
012025041502PLPL3       010PLANOEPLANO ON      NM   R$  000000000120600000000012220000000001198000000000120900000000012220000000001212000000000122202774000000000000647700000000000783486300000000000000009999123100000010000000000000BRPLPLACNOR5105
012025041502BMEB3       010MERCANTIL   ON      N1   R$  000000000307500000000030750000000002996000000000301100000000029960000000001630000000000300000006000000000000000600000000000001807100000000000000009999123100000010000000000000BRBMEBACNOR8208
012025041502BMEB4       010MERCANTIL   PN      N1   R$  000000000321000000000033600000000003140000000000326800000000033390000000003300000000000333900125000000000000018500000000000060459100000000000000009999123100000010000000000000BRBMEBACNPR5213
012025041502BMGB4       010BANCO BMG   PN      N1   R$  000000000037100000000003750000000000371000000000037200000000003710000000000371000000000037200500000000000000232400000000000086607600000000000000009999123100000010000000000000BRBMGBACNPR0113
012025041502BMKS3       010BIC MONARK  ON           R$  000000003770000000000380000000000037700000000003794100000000379900000000036615000000003800000005000000000000000028000000000001062374000000000000009999123100000010000000000000BRBMKSACNOR9166
012025041502BMOB3       010BEMOBI TECH ON      NM   R$  000000000171000000000017280000000001698000000000171300000000017230000000001714000000000172300982000000000000214500000000000367478200000000000000009999123100000010000000000000BRBMOBACNOR7104
012025041502BEEF3       010MINERVA     ON      NM   R$  000000000067700000000006930000000000666000000000068300000000006900000000000690000000000069115390000000000010239900000000006999975500000000000000009999123100000010000000000000BRBEEFACNOR6117
012025041502BRKM3       010BRASKEM     ON      N1   R$  000000000105700000000010570000000001010000000000102100000000010110000000001010000000000101200055000000000000016400000000000016760100000000000000009999123100000010000000000000BRBRKMACNOR1119
012025041502BRKM5       010BRASKEM     PNA     N1   R$  000000000102500000000010340000000000983000000000099900000000009860000000000986000000000099105777000000000003645000000000003643100700000000000000009999123100000010000000000000BRBRKMACNPA4122
012025041502FRAS3       010FRAS-LE     ON      N1   R$  000000000275300000000027790000000002751000000000276700000000027700000000002764000000000277300985000000000000171600000000000474821100000000000000009999123100000010000000000000BRFRASACNOR0161
012025041502BGIP4       010BANESE      PN  EJ       R$  000000000270000000000027000000000002623000000000264400000000026230000000002655000000000268000004000000000000000400000000000001057600000000000000009999123100000010000000000000BRBGIPACNPR8212
012025041502BHIA3       010CASAS BAHIA ON      NM   R$  000000000068900000000006980000000000608000000000064300000000006110000000000611000000000061410027000000000011449400000000007366198100000000000000009999123100000010000000000000BRBHIAACNOR1103
012025041502INEP3       010INEPAR      ON           R$  000000000015800000000001580000000000145000000000014700000000001450000000000145000000000014600049000000000000029700000000000004370900000000000000009999123100000010000000000000BRINEPACNOR1143
012025041502INEP4       010INEPAR      PN           R$  000000000013900000000001390000000000132000000000013400000000001380000000000132000000000013700023000000000000013900000000000001863300000000000000009999123100000010000000000000BRINEPACNPR8143
012025041502INTB3       010INTELBRAS   ON      NM   R$  000000000122800000000013020000000001224000000000127800000000012810000000001280000000000128207888000000000002987900000000003821196800000000000000009999123100000010000000000000BRINTBACNOR9113
012025041502IRBR3       010IRBBRASIL REON      NM   R$  000000000468500000000047940000000004685000000000473100000000047020000000004702000000000470803938000000000000692200000000003275025300000000000000009999123100000010000000000000BRIRBRACNOR4112
012025041502JOPA3       010JOSAPAR     ON           R$  000000000209000000000021750000000002090000000000211800000000020900000000002090000000000216900003000000000000000300000000000000635500000000000000009999123100000010000000000000BRJOPAACNOR5135
012025041502JSLG3       010JSL         ON      NM   R$  000000000059100000000006210000000000584000000000060200000000006160000000000616000000000061701485000000000000958300000000000577193300000000000000009999123100000010000000000000BRJSLGACNOR2122
012025041502KEPL3       010KEPLER WEBERON      NM   R$  000000000074600000000007730000000000740000000000076000000000007680000000000767000000000076904091000000000001611000000000001225303100000000000000009999123100000010000000000000BRKEPLACNOR1066
012025041502KLBN11      010KLABIN S/A  UNT     N2   R$  000000000183200000000018320000000001794000000000181000000000017990000000001799000000000180109680000000000005619800000000010176796300000000000000009999123100000010000000000000BRKLBNCDAM18146
012025041502KLBN3       010KLABIN S/A  ON      N2   R$  000000000037400000000003760000000000367000000000037100000000003680000000000368000000000037001365000000000000590200000000000219334100000000000000009999123100000010000000000000BRKLBNACNOR2174
012025041502KLBN4       010KLABIN S/A  PN      N2   R$  000000000036600000000003670000000000357000000000036100000000003580000000000358000000000035903089000000000002956900000000001068005600000000000000009999123100000010000000000000BRKLBNACNPR9174
012025041502MRVE3       010MRV         ON      NM   R$  000000000049900000000005080000000000494000000000049900000000004970000000000497000000000049806558000000000007125500000000003559808800000000000000009999123100000010000000000000BRMRVEACNOR2127
012025041502RAIL3       010RUMO S.A.   ON      NM   R$  000000000184500000000018670000000001833000000000185000000000018500000000001850000000000185123578000000000008317100000000015388921900000000000000009999123100000010000000000000BRRAILACNOR9105
012025041502SCAR3       010SAO CARLOS  ON      NM   R$  000000000165500000000016580000000001642000000000165100000000016440000000001643000000000165800050000000000000005800000000000009578100000000000000009999123100000010000000000000BRSCARACNOR7132
012025041502SEER3       010SER EDUCA   ON      NM   R$  000000000054200000000005440000000000527000000000053300000000005310000000000530000000000053201215000000000000305900000000000163226800000000000000009999123100000010000000000000BRSEERACNOR5119
012025041502SEQL3       010SEQUOIA LOG ON  ES  NM   R$  000000000019900000000002050000000000198000000000020000000000002010000000000199000000000020100167000000000000160800000000000032199900000000000000009999123100000010000000000000BRSEQLACNOR2105
012025041502SHOW3       010TIME FOR FUNON      NM   R$  000000000006300000000000640000000000062000000000006200000000000620000000000062000000000006400171000000000000061500000000000003864200000000000000009999123100000010000000000000BRSHOWACNOR7105
012025041502SHUL4       010SCHULZ      PN           R$  000000000053500000000005490000000000526000000000053800000000005490000000000546000000000054900553000000000000287900000000000155079300000000000000009999123100000010000000000000BRSHULACNPR4159
012025041502SIMH3       010SIMPAR      ON      NM   R$  000000000048400000000004970000000000469000000000048000000000004770000000000476000000000047705408000000000004970300000000002387685400000000000000009999123100000010000000000000BRSIMHACNOR0108
012025041502SLCE3       010SLC AGRICOLAON      NM   R$  000000000208800000000020930000000002022000000000204500000000020310000000002030000000000203115147000000000004031500000000008245204300000000000000009999123100000010000000000000BRSLCEACNOR2125
012025041502UNIP3       010UNIPAR      ON           R$  000000000498800000000049880000000004901000000000495200000000049010000000004901000000000497600011000000000000001400000000000006933400000000000000009999123100000010000000000000BRUNIPACNOR7208
012025041502UNIP6       010UNIPAR      PNB          R$  000000000549200000000055040000000005338000000000540400000000053660000000005365000000000537500520000000000000060600000000000327497400000000000000009999123100000010000000000000BRUNIPACNPB8208
012025041502USIM3       010USIMINAS    ON      N1   R$  000000000055600000000005640000000000547000000000055400000000005490000000000549000000000055000356000000000000107500000000000059586000000000000000009999123100000010000000000000BRUSIMACNOR3167
012025041502USIM5       010USIMINAS    PNA     N1   R$  000000000055900000000005700000000000546000000000055500000000005460000000000546000000000054809614000000000008854100000000004917655300000000000000009999123100000010000000000000BRUSIMACNPA6170
012025041502USIM6       010USIMINAS    PNB     N1   R$  000000000090000000000009120000000000900000000000090400000000009020000000000901000000000110000009000000000000000900000000000000814400000000000000009999123100000010000000000000BRUSIMACNPB4169
012025041502ISAE3       010ISA ENERGIA ON      N1   R$  000000000321100000000032190000000003164000000000320100000000032190000000003193000000000324900009000000000000001200000000000003842300000000000000009999123100000010000000000000BRISAEACNOR2103
012025041502ISAE4       010ISA ENERGIA PN      N1   R$  000000000222800000000022520000000002219000000000223700000000022390000000002237000000000224005312000000000001407600000000003149412400000000000000009999123100000010000000000000BRISAEACNPR9103
012025041502ITSA3       010ITAUSA      ON      N1   R$  000000000098000000000010040000000000980000000000099400000000009950000000000995000000000100000405000000000000146300000000000145555000000000000000009999123100000010000000000000BRITSAACNOR0448
012025041502ITSA4       010ITAUSA      PN      N1   R$  000000000097400000000009950000000000973000000000099000000000009910000000000991000000000099223471000000000028543500000000028264257900000000000000009999123100000010000000000000BRITSAACNPR7448
012025041502JHSF3       010JHSF PART   ON  ED  NM   R$  000000000043000000000004350000000000423000000000042900000000004350000000000433000000000043503170000000000002574500000000001106493800000000000000009999123100000010000000000000BRJHSFACNOR2146
012025041502MRFG3       010MARFRIG     ON      NM   R$  000000000205000000000020550000000001965000000000200600000000020150000000002013000000000201513727000000000006259800000000012557661800000000000000009999123100000010000000000000BRMRFGACNOR0117
012025041502PETZ3       010PETZ        ON      NM   R$  000000000040700000000004110000000000397000000000040300000000004010000000000400000000000040109963000000000006509900000000002625330800000000000000009999123100000010000000000000BRPETZACNOR2111
012025041502PTBL3       010PORTOBELLO  ON      NM   R$  000000000037300000000003990000000000366000000000038600000000003960000000000393000000000039600908000000000000806000000000000311446000000000000000009999123100000010000000000000BRPTBLACNOR8132
012025041502PTNT3       010PETTENATI   ON           R$  000000000090400000000009050000000000900000000000090300000000009000000000000891000000000090000003000000000000000800000000000000722900000000000000009999123100000010000000000000BRPTNTACNOR6043
012025041502PTNT4       010PETTENATI   PN           R$  000000000069200000000006940000000000683000000000069000000000006940000000000682000000000069400023000000000000007300000000000005043500000000000000009999123100000010000000000000BRPTNTACNPR3048
012025041502QUAL3       010QUALICORP   ON      NM   R$  000000000019700000000002010000000000192000000000019600000000002010000000000200000000000020102246000000000001695100000000000333895600000000000000009999123100000010000000000000BRQUALACNOR6121
012025041502RADL3       010RAIADROGASILON  EJ  NM   R$  000000000213000000000022800000000002130000000000223800000000022800000000002274000000000228118738000000000019439400000000043521726100000000000000009999123100000010000000000000BRRADLACNOR0160
012025041502SAPR11      010SANEPAR     UNT     N2   R$  000000000281500000000029040000000002798000000000287100000000029040000000002897000000000290405869000000000000985200000000002828733700000000000000009999123100000010000000000000BRSAPRCDAM13119
012025041502SAPR3       010SANEPAR     ON      N2   R$  000000000055900000000005830000000000558000000000057500000000005750000000000574000000000058300888000000000000207500000000000119353100000000000000009999123100000010000000000000BRSAPRACNOR9160
012025041502SAPR4       010SANEPAR     PN      N2   R$  000000000055800000000005790000000000557000000000057200000000005750000000000575000000000057702402000000000001508100000000000863809500000000000000009999123100000010000000000000BRSAPRACNPR6160
012025041502PATI3       010PANATLANTICAON           R$  000000000280000000000028000000000002800000000000280000000000028000000000002800000000000299500002000000000000000500000000000001400000000000000000009999123100000010000000000000BRPATIACNOR6067
012025041502PATI4       010PANATLANTICAPN           R$  000000000320000000000032000000000003100000000000311200000000031000000000003002000000000340000003000000000000000800000000000002490200000000000000009999123100000010000000000000BRPATIACNPR3067
012025041502PCAR3       010P.ACUCAR-CBDON      NM   R$  000000000040000000000004010000000000366000000000037700000000003690000000000369000000000037008846000000000018558600000000007014606100000000000000009999123100000010000000000000BRPCARACNOR3168
012025041502RNEW11      010RENOVA      UNT     N2   R$  000000000025900000000002670000000000259000000000026100000000002670000000000260000000000028000015000000000000006000000000000001570200000000000000009999123100000010000000000000BRRNEWCDAM15111
012025041502RNEW3       010RENOVA      ON      N2   R$  000000000008900000000000900000000000083000000000008500000000000860000000000085000000000008600120000000000000165400000000000014222600000000000000009999123100000010000000000000BRRNEWACNOR8111
012025041502RNEW4       010RENOVA      PN      N2   R$  000000000008700000000000880000000000085000000000008600000000000850000000000085000000000008600118000000000000073600000000000006355600000000000000009999123100000010000000000000BRRNEWACNPR5111
012025041502ROMI3       010ROMI        ON      NM   R$  000000000091000000000009290000000000908000000000091900000000009160000000000915000000000092000537000000000000072300000000000066453700000000000000009999123100000010000000000000BRROMIACNOR8198
012025041502TAEE11      010TAESA       UNT     N2   R$  000000000342600000000034690000000003419000000000345300000000034450000000003445000000000344905687000000000001293700000000004467974500000000000000009999123100000010000000000000BRTAEECDAM10149
012025041502TAEE3       010TAESA       ON      N2   R$  000000000112500000000011500000000001125000000000114500000000011470000000001145000000000114800257000000000000044900000000000051422000000000000000009999123100000010000000000000BRTAEEACNOR9149
012025041502TAEE4       010TAESA       PN      N2   R$  000000000115100000000011560000000001143000000000114900000000011450000000001145000000000114800513000000000000128500000000000147758700000000000000009999123100000010000000000000BRTAEEACNPR6149
012025041502TASA3       010TAURUS ARMASON      N2   R$  000000000084800000000008670000000000844000000000085400000000008590000000000860000000000086900029000000000000004500000000000003845600000000000000009999123100000010000000000000BRTASAACNOR7104
012025041502TASA4       010TAURUS ARMASPN      N2   R$  000000000084200000000008720000000000842000000000085600000000008720000000000861000000000087201002000000000000200900000000000171984800000000000000009999123100000010000000000000BRTASAACNPR4104
012025041502TCSA3       010TECNISA     ON      NM   R$  000000000014100000000001450000000000139000000000014100000000001410000000000141000000000014300109000000000000071700000000000010150700000000000000009999123100000010000000000000BRTCSAACNOR3112
012025041502TECN3       010TECHNOS     ON      NM   R$  000000000058300000000006050000000000576000000000059000000000005970000000000595000000000059900368000000000000166700000000000098492400000000000000009999123100000010000000000000BRTECNACNOR6110
012025041502ZAMP3       010ZAMP S.A.   ON           R$  000000000030400000000003200000000000302000000000030900000000003110000000000310000000000031201147000000000000608500000000000188581800000000000000009999123100000010000000000000BRZAMPACNOR5101
012025041502VALE3       010VALE        ON      NM   R$  000000000543800000000054650000000005353000000000538800000000053810000000005378000000000538235865000000000017471900000000094152366500000000000000009999123100000010000000000000BRVALEACNOR0213
012025041502WEST3       010WESTWING    ON      NM   R$  000000000050000000000005030000000000500000000000050200000000005030000000000502000000000050700005000000000000000700000000000000351800000000000000009999123100000010000000000000BRWESTACNOR3101
012025041502WHRL3       010WHIRLPOOL   ON           R$  000000000038400000000004190000000000384000000000040700000000004070000000000388000000000040000012000000000000001200000000000000488400000000000000009999123100000010000000000000BRWHRLACNOR5130
012025041502WHRL4       010WHIRLPOOL   PN           R$  000000000044300000000004450000000000434000000000043500000000004370000000000435000000000044200009000000000000002400000000000001045800000000000000009999123100000010000000000000BRWHRLACNPR2130
012025041502WIZC3       010WIZ CO      ON      NM   R$  000000000059500000000005970000000000589000000000059100000000005890000000000589000000000059100953000000000000414500000000000245196600000000000000009999123100000010000000000000BRWIZCACNOR5102
012025041502WLMM4       010WLM IND COM PN           R$  000000000300000000000030000000000003000000000000300000000000030000000000002930000000000310000005000000000000000500000000000001500000000000000000009999123100000010000000000000BRWLMMACNPR3121
012025041502YDUQ3       010YDUQS PART  ON      NM   R$  000000000131600000000013590000000001316000000000134200000000013510000000001348000000000135111152000000000003175300000000004261574800000000000000009999123100000010000000000000BRYDUQACNOR3106
012025041502VITT3       010VITTIA      ON      NM   R$  000000000050100000000005090000000000500000000000050200000000005020000000000501000000000050600477000000000000232500000000000116892000000000000000009999123100000010000000000000BRVITTACNOR4109
012025041502VIVA3       010VIVARA S.A. ON      NM   R$  000000000200600000000020110000000001982000000000199300000000020050000000002003000000000200607658000000000001836000000000003659596000000000000000009999123100000010000000000000BRVIVAACNOR0107
012025041502VIVR3       010VIVER       ON      NM   R$  000000000009700000000001000000000000096000000000009700000000000980000000000098000000000009900112000000000000243500000000000023848700000000000000009999123100000010000000000000BRVIVRACNOR4123
012025041502VIVT3       010TELEF BRASILON  EX       R$  000000000255000000000026250000000002534000000000255900000000025460000000002545000000000256610512000000000002597000000000006645881400000000000000009999123100000010000000000000BRVIVTACNOR0191
012025041502VLID3       010VALID       ON      NM   R$  000000000246700000000024770000000002412000000000245400000000024670000000002444000000000246701859000000000000272200000000000668204100000000000000009999123100000010000000000000BRVLIDACNOR5147
012025041502VSTE3       010VESTE       ON      NM   R$  000000000067300000000006730000000000660000000000067100000000006680000000000661000000000066900013000000000000006200000000000004162200000000000000009999123100000010000000000000BRVSTEACNOR5103
012025041502SBFG3       010GRUPO SBF   ON      NM   R$  000000000117100000000011770000000001139000000000114600000000011420000000001142000000000114302006000000000000563600000000000646241500000000000000009999123100000010000000000000BRSBFGACNOR1103
012025041502SBSP3       010SABESP      ON      NM   R$  000000001079900000000108780000000010732000000001080800000000108430000000010840000000001084418054000000000002983900000000032250295000000000000000009999123100000010000000000000BRSBSPACNOR5161
012025041502TRIS3       010TRISUL      ON      NM   R$  000000000063000000000006450000000000630000000000063900000000006400000000000637000000000064000914000000000000407800000000000260592300000000000000009999123100000010000000000000BRTRISACNOR4118
012025041502TTEN3       0103TENTOS     ON      NM   R$  000000000152500000000016000000000001515000000000156300000000015810000000001581000000000158207037000000000001482600000000002318029800000000000000009999123100000010000000000000BRTTENACNOR0104
012025041502TUPY3       010TUPY        ON      NM   R$  000000000201000000000021120000000001992000000000206600000000021120000000002090000000000211306019000000000001214100000000002509131200000000000000009999123100000010000000000000BRTUPYACNOR1185
012025041502UCAS3       010UNICASA     ON      NM   R$  000000000015200000000001570000000000150000000000015300000000001540000000000154000000000015500117000000000000017300000000000002664100000000000000009999123100000010000000000000BRUCASACNOR1114
012025041502UGPA3       010ULTRAPAR    ON      NM   R$  000000000168200000000016960000000001652000000000167000000000016800000000001678000000000168013231000000000006126200000000010231503800000000000000009999123100000010000000000000BRUGPAACNOR8157
012025041502MILS3       010MILLS       ON  EJ  NM   R$  000000000091700000000009360000000000912000000000092600000000009330000000000928000000000093303250000000000000704000000000000652133300000000000000009999123100000010000000000000BRMILSACNOR2130
012025041502MLAS3       010MULTILASER  ON      NM   R$  000000000012100000000001250000000000119000000000012100000000001210000000000120000000000012102550000000000001136700000000000138385500000000000000009999123100000010000000000000BRMLASACNOR9101
012025041502MNDL3       010MUNDIAL     ON           R$  000000000190000000000019000000000001890000000000189800000000019000000000001550000000000189900004000000000000000600000000000001138900000000000000009999123100000010000000000000BRMNDLACNOR4109
012025041502MNPR3       010MINUPAR     ON           R$  000000000290000000000029280000000002899000000000290200000000028990000000002755000000000290000003000000000000000900000000000002612400000000000000009999123100000010000000000000BRMNPRACNOR5122
012025041502MOVI3       010MOVIDA      ON      NM   R$  000000000058500000000005890000000000563000000000057400000000005770000000000577000000000058009153000000000007076400000000004063699500000000000000009999123100000010000000000000BRMOVIACNOR0124
012025041502PDGR3       010PDG REALT   ON  ES  NM   R$  000000000008500000000000850000000000082000000000008300000000000820000000000082000000000008300210000000000000241500000000000020086500000000000000009999123100000010000000000000BRPDGRACNOR8121
012025041502PDTC3       010PADTEC      ON      NM   R$  000000000010800000000001080000000000104000000000010500000000001060000000000105000000000010600064000000000000055600000000000005872900000000000000009999123100000010000000000000BRPDTCACNOR3101
012025041502PEAB3       010PAR AL BAHIAON           R$  000000000395000000000039500000000003950000000000395000000000039500000000003709000000000400000001000000000000000100000000000000395000000000000000009999123100000010000000000000BRPEABACNOR3135
012025041502ONCO3       010ONCOCLINICASON      NM   R$  000000000054000000000005620000000000539000000000055500000000005600000000000560000000000056101158000000000000817900000000000454641700000000000000009999123100000010000000000000BRONCOACNOR6101
012025041502OPCT3       010OCEANPACT   ON      NM   R$  000000000052200000000005380000000000517000000000052600000000005250000000000525000000000052801695000000000000568600000000000299511500000000000000009999123100000010000000000000BROPCTACNOR0100
012025041502ORVR3       010ORIZON      ON      NM   R$  000000000423100000000044720000000004225000000000439100000000044700000000004456000000000447304025000000000000619300000000002719905600000000000000009999123100000010000000000000BRORVRACNOR0101
012025041502SYNE3       010SYN PROP TECON      NM   R$  000000000051100000000005140000000000504000000000050900000000005110000000000510000000000051100660000000000000303300000000000154673300000000000000009999123100000010000000000000BRSYNEACNOR2104
012025041502PETR3       010PETROBRAS   ON      N2   R$  000000000342000000000034230000000003324000000000335900000000033360000000003336000000000333716027000000000009799200000000032920120500000000000000009999123100000010000000000000BRPETRACNOR9208
012025041502PETR4       010PETROBRAS   PN      N2   R$  000000000317300000000031870000000003098000000000313100000000031000000000003100000000000310172932000000000058276900000000182482460900000000000000009999123100000010000000000000BRPETRACNPR6217
012025041502PRNR3       010PRINER      ON      NM   R$  000000000174200000000017780000000001729000000000176200000000017660000000001759000000000176601867000000000000442900000000000780520000000000000000009999123100000010000000000000BRPRNRACNOR4109
012025041502PSSA3       010PORTO SEGUROON      NM   R$  000000000397000000000040420000000003960000000000402000000000040420000000004039000000000404205940000000000001138300000000004576144700000000000000009999123100000010000000000000BRPSSAACNOR7158
012025041502RSUL4       010RIOSULENSE  PN           R$  000000000689800000000068980000000006848000000000685900000000068500000000006444000000000685000004000000000000000500000000000003429600000000000000009999123100000010000000000000BRRSULACNPR3114
012025041502SANB11      010SANTANDER BRUNT          R$  000000000267500000000027490000000002675000000000272000000000026930000000002693000000000270009810000000000002843500000000007735054700000000000000009999123100000010000000000000BRSANBCDAM13167
012025041502SANB3       010SANTANDER BRON           R$  000000000124300000000012990000000001243000000000128600000000012780000000001277000000000128800477000000000000087300000000000112288500000000000000009999123100000010000000000000BRSANBACNOR8174
012025041502SANB4       010SANTANDER BRPN           R$  000000000141300000000014470000000001404000000000142800000000014150000000001415000000000143000527000000000000102100000000000145859800000000000000009999123100000010000000000000BRSANBACNPR5174
012025041502TELB3       010TELEBRAS    ON           R$  000000000143100000000014310000000001382000000000141200000000014250000000001394000000000144000018000000000000002700000000000003813600000000000000009999123100000010000000000000BRTELBACNOR2141
012025041502TELB4       010TELEBRAS    PN           R$  000000000090000000000009150000000000900000000000090700000000009100000000000903000000000091000015000000000000003400000000000003085400000000000000009999123100000010000000000000BRTELBACNPR9141
012025041502TEND3       010TENDA       ON      NM   R$  000000000151300000000015410000000001471000000000148800000000014820000000001482000000000148506521000000000001579700000000002352143300000000000000009999123100000010000000000000BRTENDACNOR4112
012025041502TFCO4       010TRACK FIELD PN      N2   R$  000000000107900000000010800000000001058000000000106500000000010630000000001063000000000107000804000000000000223000000000000237560500000000000000009999123100000010000000000000BRTFCOACNPR8117
012025041502TGMA3       010TEGMA       ON  EDJ NM   R$  000000000345800000000034810000000003428000000000346300000000034650000000003465000000000347800825000000000000143500000000000497068500000000000000009999123100000010000000000000BRTGMAACNOR7147
012025041502TIMS3       010TIM         ON  ED  NM   R$  000000000173300000000017680000000001727000000000175300000000017520000000001751000000000176713142000000000007689400000000013483402000000000000000009999123100000010000000000000BRTIMSACNOR5122
012025041502TOTS3       010TOTVS       ON      NM   R$  000000000358000000000036540000000003557000000000362000000000036170000000003617000000000362016132000000000003530400000000012782367000000000000000009999123100000010000000000000BRTOTSACNOR8147
012025041502TPIS3       010TRIUNFO PARTON      NM   R$  000000000041400000000004240000000000410000000000041700000000004200000000000413000000000042000055000000000000008700000000000003629900000000000000009999123100000010000000000000BRTPISACNOR8119
012025041502TRAD3       010TC          ON      NM   R$  000000000072600000000007340000000000700000000000071900000000007100000000000706000000000071000082000000000000017500000000000012587500000000000000009999123100000010000000000000BRTRADACNOR3102
012025041507TXRX4       010TEX RENAUX  PN           R$  000000000021800000000002200000000000187000000000021100000000002000000000000187000000000020200016000000000000005100000000000001080700000000000000009999123100000010000000000000BRTXRXACNPR0142
012025041508AMER3       010AMERICANAS  ON      NM   R$  000000000060000000000006210000000000597000000000060800000000006000000000000599000000000060002833000000000002340600000000001424780100000000000000009999123100000010000000000000BRAMERACNOR6103
012025041508OIBR3       010OI          ON      N1   R$  000000000007100000000000750000000000061000000000006600000000000640000000000064000000000006505517000000000024607400000000001625689600000000000000009999123100000010000000000000BROIBRACNOR1112
012025041508AGXY3       010AGROGALAXY  ON      NM   R$  000000000005300000000000540000000000051000000000005200000000000520000000000052000000000005300267000000000000345600000000000018102400000000000000009999123100000010000000000000BRAGXYACNOR4103
012025041508BDLL3       010BARDELLA    ON           R$  000000000098000000000009800000000000980000000000098000000000009800000000000926000000000098000001000000000000000100000000000000098000000000000000009999123100000010000000000000BRBDLLACNOR1149
012025041508BDLL4       010BARDELLA    PN           R$  000000000092500000000009250000000000925000000000092500000000009250000000000890000000000096000001000000000000000100000000000000092500000000000000009999123100000010000000000000BRBDLLACNPR8151
012025041508NEXP3       010NEXPE       ON           R$  000000000038900000000003890000000000385000000000038500000000003850000000000385000000000038900008000000000000001100000000000000423900000000000000009999123100000010000000000000BRNEXPACNOR0101
012025041508CTSA3       010SANTANENSE  ON           R$  000000000012100000000001210000000000121000000000012100000000001210000000000112000000000013100004000000000000000400000000000000048400000000000000009999123100000010000000000000BRCTSAACNOR3062
012025041508CTSA4       010SANTANENSE  PN           R$  000000000007200000000000720000000000072000000000007200000000000720000000000068000000000007200005000000000000008200000000000000590400000000000000009999123100000010000000000000BRCTSAACNPR0062
012025041508ATMP3       010ATMASA      ON           R$  000000000012200000000001220000000000116000000000011700000000001160000000000116000000000011800015000000000000015700000000000001842000000000000000009999123100000010000000000000BRATMPACNOR8100
012025041508PMAM3       010PARANAPANEMAON      NM   R$  000000000023100000000002540000000000214000000000023200000000002180000000000215000000000021801482000000000002166700000000000502943400000000000000009999123100000010000000000000BRPMAMACNOR3041
012025041508LIGT3       010LIGHT S/A   ON      NM   R$  000000000045500000000004570000000000432000000000044200000000004400000000000440000000000044101634000000000001065300000000000471231400000000000000009999123100000010000000000000BRLIGTACNOR2125
012025041508BOBR4       010BOMBRIL     PN           R$  000000000016900000000001720000000000166000000000016800000000001690000000000168000000000017000131000000000000039800000000000006716300000000000000009999123100000010000000000000BRBOBRACNPR3128
012025041508JFEN3       010JOAO FORTES ON           R$  000000000023200000000002370000000000232000000000023400000000002330000000000233000000000023600011000000000000006100000000000001431600000000000000009999123100000010000000000000BRJFENACNOR0060
012025041508RPMG3       010PET MANGUINHON           R$  000000000027600000000002920000000000276000000000028700000000002900000000000280000000000029100008000000000000004900000000000001406600000000000000009999123100000010000000000000BRRPMGACNOR9194
012025041508RSID3       010ROSSI RESID ON      NM   R$  000000000024000000000002430000000000239000000000024000000000002420000000000239000000000024300020000000000000003400000000000000818600000000000000009999123100000010000000000000BRRSIDACNOR8120
012025041508HOOT4       010HOTEIS OTHONPN           R$  000000000028700000000002890000000000283000000000028500000000002830000000000283000000000028400012000000000000005200000000000001485200000000000000009999123100000010000000000000BRHOOTACNPR9015
012025041508OIBR4       010OI          PN      N1   R$  000000000076000000000007870000000000722000000000076000000000007570000000000750000000000075800166000000000000068700000000000052225100000000000000009999123100000010000000000000BROIBRACNPR8111
012025041508OSXB3       010OSX BRASIL  ON      NM   R$  000000000029900000000002990000000000281000000000029100000000002810000000000283000000000029700015000000000000004500000000000001311800000000000000009999123100000010000000000000BROSXBACNOR8109
012025041510HBSA9       010HIDROVIAS   ON  REC NM   R$  000000000023000000000002400000000000228000000000023400000000002300000000000227000000000023000434000000000002181400000000000511452000000000000000009999123100000010000000000000BRHBSAR02OR3101
012025041510ADMF1       010CIABRASF    DIR ORD NM   R$  000000000003800000000000380000000000038000000000003800000000000380000000000018000000000005200006000000000000001000000000000000038000000000000000009999123100000010000000000000BRADMFD01OR8100
012025041510IFCM1       010INFRACOMM   DIR ORD NM   R$  000000000000100000000000020000000000001000000000000100000000000020000000000001000000000000200456000000000009758300000000000017836800000000000000009999123100000010000000000000BRIFCMD03OR9102
012025041510SEQL1       010SEQUOIA LOG DIR ORD NM   R$  000000000000200000000000030000000000001000000000000200000000000020000000000001000000000000200096000000000001295500000000000002592800000000000000009999123100000010000000000000BRSEQLD05OR8104
012025041510PDGR1       010PDG REALT   DIR ORD NM   R$  000000000000300000000000030000000000002000000000000200000000000030000000000002000000000000300180000000000000839500000000000002047700000000000000009999123100000010000000000000BRPDGRD07OR0120
012025041512VTLT11      010FII VOT LOG CI           R$  000000000859300000000086500000000008525000000000861500000000085950000000008531000000000864700394000000000000001312000000000011303108000000000000009999123100000010000000000000BRVTLTCTF001182
012025041512VVCO11      010FII V2EDCORPCI           R$  000000000136700000000013900000000001366000000000136900000000013900000000001353000000000139200019000000000000000275000000000000376519000000000000009999123100000010000000000000BRVVCOCTF007101
012025041512VVCR11      010FII V2 RECE CI           R$  000000000104400000000010440000000001003000000000101100000000010120000000001003000000000104400019000000000000000203000000000000205248000000000000009999123100000010000000000000BRVVCRCTF000125
012025041512VVMR11      010FII MULT RENCI           R$  000000000791600000000079980000000007576000000000792700000000075760000000007576000000000799000009000000000000000069000000000000546977000000000000009999123100000010000000000000BRVVMRCTF009114
012025041512VVRI11      010FII V2 RENDACI           R$  000000000720000000000075000000000007001000000000721600000000072700000000007004000000000727000010000000000000000069000000000000497960000000000000009999123100000010000000000000BRVVRICTF007124
012025041512ABCP11      010FII ABC IMOBCI           R$  000000000759800000000076890000000007468000000000759300000000075990000000007599000000000760100078000000000000000586000000000004449921000000000000009999123100000010000000000000BRABCPCTF000350
012025041512BARI11      010FII BARI VBICI           R$  000000000700600000000071080000000007000000000000704600000000070420000000007034000000000704200778000000000000004366000000000030764576000000000000009999123100000010000000000000BRBARICTF003172
012025041512BRCO11      010FII BRESCO  CI           R$  000000001045000000000105810000000010346000000001042800000000104500000000010449000000001045006726000000000000034481000000000359570938000000000000009999123100000010000000000000BRBRCOCTF007167
012025041512BRCR11      010FII BC FUND CI  ER       R$  000000000401500000000040300000000004000000000000401600000000040200000000004020000000000402106900000000000000032187000000000129284828000000000000009999123100000010000000000000BRBRCRCTF000277
012025041512CPLG11      010FII CPLG    CI  ER       R$  000000000094100000000011080000000000941000000000107400000000011080000000001060000000000110800008000000000000000015000000000000016119000000000000009999123100000010000000000000BRCPLGCTF006107
012025041512HCHG11      010FII HECT CRICI           R$  000000000760200000000076100000000007602000000000760600000000076100000000007420000000000762000010000000000000000285000000000002167919000000000000009999123100000010000000000000BRHCHGCTF001147
012025041512HCRI11      010FII CRIANCA CI  ER       R$  000000002501600000000250160000000024800000000002480600000000248000000000024800000000002501500019000000000000000342000000000008483717000000000000009999123100000010000000000000BRHCRICTF006339
012025041512HCTR11      010FII HECTARE CI  ER       R$  000000000207700000000020990000000002077000000000208900000000020960000000002094000000000209602066000000000000036369000000000075985067000000000000009999123100000010000000000000BRHCTRCTF003179
012025041512HFOF11      010FII HTOPFOF3CI           R$  000000000550000000000055410000000005477000000000552100000000055410000000005532000000000554402109000000000000021554000000000119007457000000000000009999123100000010000000000000BRHFOFCTF002200
012025041512HGBL11      010FII HGBL    CI           R$  000000000085500000000008720000000000855000000000086300000000008700000000000864000000000087000224000000000000008470000000000007312708000000000000009999123100000010000000000000BRHGBLCTF005116
012025041512HGBS11      010FII HEDGEBS CI           R$  000000001925000000000192500000000019051000000001918500000000190510000000019051000000001923502457000000000000013312000000000255403826000000000000009999123100000010000000000000BRHGBSCTF000321
012025041512HGCR11      010FII HGCR PAXCI           R$  000000000947100000000095680000000009471000000000953600000000095020000000009502000000000954804172000000000000022596000000000215479789000000000000009999123100000010000000000000BRHGCRCTF000256
012025041512HGFF11      010FII HGFF PAXCI           R$  000000000677000000000068290000000006741000000000680400000000067980000000006798000000000680000580000000000000002838000000000019311539000000000000009999123100000010000000000000BRHGFFCTF008170
012025041512HGIC11      010FII HGI CRI CI  ER       R$  000000000737200000000073720000000007100000000000733800000000073650000000007091000000000736400033000000000000000095000000000000697114000000000000009999123100000010000000000000BRHGICCTF009150
012025041512HGLG11      010FII HGLG PAXCI           R$  000000001537900000000154960000000015102000000001535700000000152830000000015280000000001528313015000000000000067726000000001040097472000000000000009999123100000010000000000000BRHGLGCTF004281
012025041512HGPO11      010FII HGPO PAXCI           R$  000000001315900000000131930000000013054000000001312500000000131260000000013126000000001317900163000000000000001630000000000021394979000000000000009999123100000010000000000000BRHGPOCTF009166
012025041512ALMI11      010FII TORRE ALCI           R$  000000005350000000000535000000000052801000000005302900000000528070000000052807000000005777800014000000000000000049000000000002598453000000000000009999123100000010000000000000BRALMICTF003258
012025041512ALZC11      010FII ALIANZACCI           R$  000000000790000000000080000000000007900000000000796100000000079980000000007990000000000799800094000000000000000686000000000005461487000000000000009999123100000010000000000000BRALZCCTF016113
012025041512ALZR11      010FII ALIANZA CI           R$  000000000976200000000098410000000009752000000000979200000000097710000000009768000000000977103759000000000000030767000000000301274565000000000000009999123100000010000000000000BRALZRCTF006192
012025041512BROF11      010FII BROF    CI           R$  000000000483900000000048610000000004800000000000481200000000048000000000004793000000000481300119000000000000002828000000000013609778000000000000009999123100000010000000000000BRBROFCTF000123
012025041512GGRC11      010FII GGRCOVEPCI  ES       R$  000000000095400000000009580000000000946000000000094900000000009500000000000949000000000095011384000000000000477246000000000453340922000000000000009999123100000010000000000000BRGGRCCTF002206
012025041512GLOG11      010FII PLURAL LCI           R$  000000000603900000000060390000000006039000000000603900000000060390000000006039000000000604500001000000000000000004000000000000024156000000000000009999123100000010000000000000BRGLOGCTF000123
012025041512GLPF11      010FII GLPF    CI  ER       R$  000000001037900000000103790000000010379000000001037900000000103790000000000000000000000000000003000000000000000290000000000003009910000000000000009999123100000010000000000000BRGLPFCTF009102
012025041512LVBI11      010FII LVBI VBICI           R$  000000000979000000000098570000000009759000000000979600000000098250000000009795000000000982504457000000000000021327000000000208921374000000000000009999123100000010000000000000BRLVBICTF002179
012025041512MALL11      010FII MALLS BPCI           R$  000000000998500000000100660000000009985000000001001500000000100330000000010030000000001003304740000000000000015252000000000152751748000000000000009999123100000010000000000000BRMALLCTF007192
012025041512MANA11      010FII MANATI  CI           R$  000000000084700000000008470000000000842000000000084400000000008430000000000843000000000084401489000000000000055478000000000046826225000000000000009999123100000010000000000000BRMANACTF006135
012025041512MAXR11      010FII MAX RET CI  ER       R$  000000000654000000000066760000000006496000000000654600000000065720000000006501000000000657200088000000000000002573000000000016844945000000000000009999123100000010000000000000BRMAXRCTF009278
012025041512MCCI11      010FII MAUA    CI  ER       R$  000000000836800000000083950000000008302000000000833700000000083680000000008328000000000836802428000000000000015091000000000125820722000000000000009999123100000010000000000000BRMCCICTF008172
012025041512MCEM11      010FII MCEM    CI  ATZ      R$  000000000650000000000065000000000006500000000000650000000000065000000000005807000000000650000096000000000000004490000000000029185000000000000000009999123100000010000000000000BRMCEMCTF006102
012025041512MCLO11      010FII MCLO    CI  ER       R$  000000000107500000000010750000000001074000000000107400000000010750000000000902000000000000000004000000000000892853000000000958924125000000000000009999123100000010000000000000BRMCLOCTF007103
012025041512MCRE11      010FII MAUA RE CI           R$  000000000086100000000008640000000000859000000000086200000000008630000000000863000000000086409278000000000000226944000000000195769533000000000000009999123100000010000000000000BRMCRECTF013105
012025041512HABT11      010FII HABIT IICI           R$  000000000780600000000078890000000007798000000000784000000000078720000000007863000000000787201605000000000000008736000000000068496003000000000000009999123100000010000000000000BRHABTCTF001170
012025041512ANCR11      010FII ANCAR ICCI           R$  000000001065000000000106500000000010650000000001065000000000106500000000010650000000001500000003000000000000000010000000000000106500000000000000009999123100000010000000000000BRANCRCTF001163
012025041512APTO11      010FII NAVI RSDCI           R$  000000000085500000000008550000000000835000000000084000000000008380000000000840000000000084400185000000000000003265000000000002743884000000000000009999123100000010000000000000BRAPTOCTF007141
012025041512HSML11      010FII HSI MALLCI           R$  000000000799300000000081450000000007993000000000806800000000081090000000008089000000000810903414000000000000019865000000000160271923000000000000009999123100000010000000000000BRHSMLCTF007171
012025041512HSRE11      010FII HSIRENDACI           R$  000000001020000000000102000000000010200000000001020000000000102000000000010057000000001020000002000000000000000002000000000000020400000000000000009999123100000010000000000000BRHSRECTF001151
012025041512HTMX11      010FII HOTEL MXCI           R$  000000001381100000000138980000000013793000000001381600000000138880000000013806000000001388801542000000000000006022000000000083203065000000000000009999123100000010000000000000BRHTMXCTF000291
012025041512HUSC11      010FII H UNIMEDCI           R$  000000000979100000000097910000000009791000000000979100000000097910000000009576000000000979100001000000000000000001000000000000009791000000000000009999123100000010000000000000BRHUSCCTF009162
012025041512CPOF11      010FII CPOF    CI           R$  000000001079200000000108500000000010792000000001079200000000108500000000000000000000001085000002000000000000504309000000005442503018000000000000009999123100000010000000000000BRCPOFCTF002117
012025041512CPSH11      010FII CPSH    CI           R$  000000000090400000000009040000000000900000000000090100000000009010000000000901000000000090302380000000000000213385000000000192405191000000000000009999123100000010000000000000BRCPSHCTF017123
012025041512CPTS11      010FII CAPI SECCI  ER       R$  000000000070900000000007300000000000709000000000072400000000007300000000000726000000000073017820000000000002907015000000002105313706000000000000009999123100000010000000000000BRCPTSCTF004241
012025041512CPUR11      010FII CPHBC URCI           R$  000000000102600000000010380000000001004000000000103100000000010280000000001007000000000102800033000000000005275529000000005444328808000000000000009999123100000010000000000000BRCPURCTF004106
012025041512CRFF11      010FII CX RBRA2CI           R$  000000000700000000000071980000000006677000000000695700000000066820000000006681000000000719900005000000000000000018000000000000125234000000000000009999123100000010000000000000BRCRFFCTF006171
